{
  "contractName": "SquareVerifier",
  "abi": [
    {
      "constant": false,
      "inputs": [
        {
          "name": "a",
          "type": "uint256[2]"
        },
        {
          "name": "b",
          "type": "uint256[2][2]"
        },
        {
          "name": "c",
          "type": "uint256[2]"
        },
        {
          "name": "input",
          "type": "uint256[2]"
        }
      ],
      "name": "verifyTx",
      "outputs": [
        {
          "name": "r",
          "type": "bool"
        }
      ],
      "payable": false,
      "stateMutability": "nonpayable",
      "type": "function"
    },
    {
      "anonymous": false,
      "inputs": [
        {
          "indexed": false,
          "name": "s",
          "type": "string"
        }
      ],
      "name": "Verified",
      "type": "event"
    }
  ],
  "bytecode": "0x608060405234801561001057600080fd5b506110f5806100206000396000f3fe608060405234801561001057600080fd5b506004361061002b5760003560e01c8063621e9ec014610030575b600080fd5b61018f600480360361014081101561004757600080fd5b8101908080604001906002806020026040519081016040528092919082600260200280828437600081840152601f19601f82011690508083019250505050505091929192908060800190600280602002604051908101604052809291906000905b828210156100fc578382604002016002806020026040519081016040528092919082600260200280828437600081840152601f19601f820116905080830192505050505050815260200190600101906100a8565b50505050919291929080604001906002806020026040519081016040528092919082600260200280828437600081840152601f19601f820116905080830192505050505050919291929080604001906002806020026040519081016040528092919082600260200280828437600081840152601f19601f82011690508083019250505050505091929192905050506101a9565b604051808215151515815260200191505060405180910390f35b60006101b3610f49565b6040518060400160405280876000600281106101cb57fe5b60200201518152602001876001600281106101e257fe5b60200201518152508160000181905250604051806040016040528060405180604001604052808860006002811061021557fe5b602002015160006002811061022657fe5b602002015181526020018860006002811061023d57fe5b602002015160016002811061024e57fe5b6020020151815250815260200160405180604001604052808860016002811061027357fe5b602002015160006002811061028457fe5b602002015181526020018860016002811061029b57fe5b60200201516001600281106102ac57fe5b602002015181525081525081602001819052506040518060400160405280856000600281106102d757fe5b60200201518152602001856001600281106102ee57fe5b60200201518152508160400181905250606060026040519080825280602002602001820160405280156103305781602001602082028038833980820191505090505b50905060008090505b60028110156103785784816002811061034e57fe5b602002015182828151811061035f57fe5b6020026020010181815250508080600101915050610339565b50600061038582846103f0565b14156103e1577f3f3cfdb26fb5f9f1786ab4f1a1f9cd4c0b5e726cbdfc26e495261731aad44e396040518080602001828103825260228152602001806110a86022913960400191505060405180910390a16001925050506103e8565b6000925050505b949350505050565b6000807f30644e72e131a029b85045b68181585d2833e84879b9709143e1f593f0000001905061041e610f7d565b610426610562565b905080608001515160018651011461043d57600080fd5b610445610fc5565b6040518060400160405280600081526020016000815250905060008090505b86518110156104db578387828151811061047a57fe5b60200260200101511061048c57600080fd5b6104cc826104c7856080015160018501815181106104a657fe5b60200260200101518a85815181106104ba57fe5b60200260200101516109af565b610a43565b91508080600101915050610464565b506104fe8183608001516000815181106104f157fe5b6020026020010151610a43565b90506105448560000151866020015161051684610af6565b85604001516105288a60400151610af6565b876060015161053a8960000151610af6565b8960200151610b90565b610554576001935050505061055c565b600093505050505b92915050565b61056a610f7d565b60405180604001604052807f0a1d24df32d5a546110e61817d0c9af3a804681257bf210c2c498f485a365fc881526020017f1b4612f0bf776f50bbdfe2f8e4ec55c9758518465a7f445dda0046250a3372f08152508160000181905250604051806040016040528060405180604001604052807f16b0264adf8da60bd336bc127ff747fb9f7dc68cf02d7d36d254caa65d301fa481526020017f2aa0140fe65748325efc70dcbd273cbf0b9f60a398072579f04dfd143ad66299815250815260200160405180604001604052807f21a589799504aa7c2f08eba7975dc612dcb95fbac9143cc23e1c0bf703cbdb3481526020017f0952cdf6595533bc10c1f02ee096617e5e490fe948146a3844316eaeca59c09b8152508152508160200181905250604051806040016040528060405180604001604052807f04ce3467d13a9a40ec10510dc912857a5926d534fe2b818cd5136e545d588cfc81526020017f05acf86dbdf6a789d400ad88aa31dcadb2dd11194c03df3e50291caa3c648708815250815260200160405180604001604052807f0ee19b9931103e176291e0ad6ef5f2233321cb0ab015b4c016f3f79fed8bd82781526020017f0c866bd487ee3b5a839c8f020545b32de72faf96d2a5f9a4686e1ebe96df1ce58152508152508160400181905250604051806040016040528060405180604001604052807f0dd3de40efb80541b34ec982f78f0f7b691260e0ff9bd73d7bfa76472294bd5881526020017f2590d624d88046a6aa6c04956ad5a843be206cc83fc6660a32800898d8138cf9815250815260200160405180604001604052807f2a4e513975a03dffb841797b2457ac4ed6bd8b0063a22b7ac5b2168bcc4bfb2081526020017f2e2f7dece6d84ce8fd44c7d55ca77888a9b64320d287b9fb0c9e08d58118f03a8152508152508160600181905250600360405190808252806020026020018201604052801561085157816020015b61083e610fdf565b8152602001906001900390816108365790505b50816080018190525060405180604001604052807f23ab13927319a5a686b7e1102cbd473577675c271b964a8f71b6414f25fe577e81526020017ec1409116ee3a143a6d2c63fe47d913ceee122676945366a0222d5d90776fe381525081608001516000815181106108bf57fe5b602002602001018190525060405180604001604052807f15339758e49ca5cd59256137aa0cf270c51c41060875a0bba5086e98e0ee9a3681526020017f17a907fb487a13e3f99298a47932a8562d5ff6f20baea64b5bc663134a190f35815250816080015160018151811061093057fe5b602002602001018190525060405180604001604052807f054a1fdcfea09570f1a858317ef45c982f98091320d159bb40f5331a834069db81526020017f10973a26edcabf1f551c60865162a08a7e7b466e89d0fbad38d535de66b444bb81525081608001516002815181106109a157fe5b602002602001018190525090565b6109b7610fc5565b6109bf610ff9565b8360000151816000600381106109d157fe5b6020020181815250508360200151816001600381106109ec57fe5b6020020181815250508281600260038110610a0357fe5b6020020181815250506000606083608084600060076107d05a03f190508060008114610a2e57610a30565bfe5b5080610a3b57600080fd5b505092915050565b610a4b610fc5565b610a5361101b565b836000015181600060048110610a6557fe5b602002018181525050836020015181600160048110610a8057fe5b602002018181525050826000015181600260048110610a9b57fe5b602002018181525050826020015181600360048110610ab657fe5b602002018181525050600060608360c084600060066107d05a03f190508060008114610ae157610ae3565bfe5b5080610aee57600080fd5b505092915050565b610afe610fc5565b60007f30644e72e131a029b85045b68181585d97816a916871ca8d3c208c16d87cfd47905060008360000151148015610b3b575060008360200151145b15610b5f576040518060400160405280600081526020016000815250915050610b8b565b60405180604001604052808460000151815260200182856020015181610b8157fe5b0683038152509150505b919050565b600060606004604051908082528060200260200182016040528015610bcf57816020015b610bbc610fdf565b815260200190600190039081610bb45790505b50905060606004604051908082528060200260200182016040528015610c0f57816020015b610bfc61103d565b815260200190600190039081610bf45790505b5090508a82600081518110610c2057fe5b60200260200101819052508882600181518110610c3957fe5b60200260200101819052508682600281518110610c5257fe5b60200260200101819052508482600381518110610c6b57fe5b60200260200101819052508981600081518110610c8457fe5b60200260200101819052508781600181518110610c9d57fe5b60200260200101819052508581600281518110610cb657fe5b60200260200101819052508381600381518110610ccf57fe5b6020026020010181905250610ce48282610cf4565b9250505098975050505050505050565b60008151835114610d0457600080fd5b6000835190506000600682029050606081604051908082528060200260200182016040528015610d435781602001602082028038833980820191505090505b50905060008090505b83811015610ee957868181518110610d6057fe5b602002602001015160000151826000600684020181518110610d7e57fe5b602002602001018181525050868181518110610d9657fe5b602002602001015160200151826001600684020181518110610db457fe5b602002602001018181525050858181518110610dcc57fe5b602002602001015160000151600060028110610de457fe5b6020020151826002600684020181518110610dfb57fe5b602002602001018181525050858181518110610e1357fe5b602002602001015160000151600160028110610e2b57fe5b6020020151826003600684020181518110610e4257fe5b602002602001018181525050858181518110610e5a57fe5b602002602001015160200151600060028110610e7257fe5b6020020151826004600684020181518110610e8957fe5b602002602001018181525050858181518110610ea157fe5b602002602001015160200151600160028110610eb957fe5b6020020151826005600684020181518110610ed057fe5b6020026020010181815250508080600101915050610d4c565b50610ef2611063565b60006020826020860260208601600060086107d05a03f190508060008114610f1957610f1b565bfe5b5080610f2657600080fd5b600082600060018110610f3557fe5b602002015114159550505050505092915050565b604051806101000160405280610f5d610fdf565b8152602001610f6a61103d565b8152602001610f77610fdf565b81525090565b604051806101e00160405280610f91610fdf565b8152602001610f9e61103d565b8152602001610fab61103d565b8152602001610fb861103d565b8152602001606081525090565b604051806040016040528060008152602001600081525090565b604051806040016040528060008152602001600081525090565b6040518060600160405280600390602082028038833980820191505090505090565b6040518060800160405280600490602082028038833980820191505090505090565b6040518060800160405280611050611085565b815260200161105d611085565b81525090565b6040518060200160405280600190602082028038833980820191505090505090565b604051806040016040528060029060208202803883398082019150509050509056fe5472616e73616374696f6e207375636365737366756c6c792076657269666965642ea165627a7a72305820c3a045a2c321f8f6b48ad5607bd0eb5c0f100ddd29b09c54ab4ef0c7ed2a43bc0029",
  "source": "pragma solidity >=0.4.21 <0.6.0;\nimport \"./Verifier.sol\";\nimport \"./ERC721Mintable.sol\";\n\n// TODO define a contract call to the zokrates generated solidity contract <Verifier> or <renamedVerifier>\ncontract SquareVerifier is Verifier {\n\n}\n\n// TODO define another contract named SolnSquareVerifier that inherits from your ERC721Mintable class\n\ncontract SolnSquareVerifier is CapstoneERC721Token {\n\n    SquareVerifier public verifier;\n    \n    // TODO define a solutions struct that can hold an index & an address\n    struct Solution {\n        uint256 solutionIndex;\n        address solutionAddrsse;\n    }\n\n    // TODO define an array of the above struct\n    Solution[] private solutionsArray;\n\n    // TODO define a mapping to store unique solutions submitted\n    mapping (bytes32 => address) private uniqueSolutionMapping;\n\n    // TODO Create an event to emit when a solution is added\n    event SolutionAdded(uint256 solutionIndex, address solutionAddrsse);\n\n    constructor(address verifierAddress, string memory name, string memory symbol) CapstoneERC721Token(name, symbol) public\n    {\n        verifier = SquareVerifier(verifierAddress);\n    }\n\n    // TODO Create a function to add the solutions to the array and emit the event\n    function addSolution(uint256 index, address addr, bytes32 key) public {\n        require(uniqueSolutionMapping[key] == address(0), 'Solution has been used before');\n        Solution memory solution = Solution ({\n                                                solutionIndex: index,\n                                                solutionAddrsse: addr\n                                            });\n\n        solutionsArray.push(solution);\n        uniqueSolutionMapping[key] = addr;\n        emit SolutionAdded(index, addr);\n\n\n    }\n\n    // TODO Create a function to mint new NFT only after the solution has been verified\n    //  - make sure the solution is unique (has not been used before)\n    //  - make sure you handle metadata as well as tokenSuplly\n    function mintNewToken(address to, uint256 tokenId, uint[2] memory a, uint[2][2] memory b, uint[2] memory c, uint[2] memory inputs) public {\n        \n        // GenerateKey from solution inputs\n        bytes32 key = generateKey(a, b, c, inputs);\n        require(verifier.verifyTx(a, b, c, inputs), 'Solution is not correct');\n        addSolution(tokenId, to, key);\n        super.mint(to, tokenId);\n\n    }\n\n    function generateKey(uint[2] memory a, uint[2][2] memory b, uint[2] memory c, uint[2] memory inputs)  public pure returns(bytes32) {\n        return keccak256(abi.encodePacked(a, b, c, inputs));\n    }\n\n}\n",
  "sourcePath": "/Users/abderrazzakbenabdallah/Udacity_Project/Blockchain-Capstone/Blockchain-Capstone/eth-contracts/contracts/SolnSquareVerifier.sol",
  "compiler": {
    "name": "solc",
    "version": "0.5.8+commit.23d335f2.Emscripten.clang"
  },
  "schemaVersion": "3.0.11",
  "updatedAt": "2019-09-29T10:01:49.379Z",
  "devdoc": {
    "methods": {}
  },
  "userdoc": {
    "methods": {}
  }
}